{
  "contractName": "Event",
  "abi": [
    {
      "inputs": [
        {
          "internalType": "address payable",
          "name": "_owner",
          "type": "address"
        },
        {
          "internalType": "bytes1",
          "name": "_hashFunction",
          "type": "bytes1"
        },
        {
          "internalType": "bytes1",
          "name": "_size",
          "type": "bytes1"
        },
        {
          "internalType": "bytes32",
          "name": "_digest",
          "type": "bytes32"
        }
      ],
      "payable": false,
      "stateMutability": "nonpayable",
      "type": "constructor"
    },
    {
      "anonymous": false,
      "inputs": [
        {
          "indexed": false,
          "internalType": "address",
          "name": "",
          "type": "address"
        }
      ],
      "name": "FungibleTicketAdded",
      "type": "event"
    },
    {
      "anonymous": false,
      "inputs": [
        {
          "indexed": false,
          "internalType": "bytes1",
          "name": "hashFunction",
          "type": "bytes1"
        },
        {
          "indexed": false,
          "internalType": "bytes1",
          "name": "size",
          "type": "bytes1"
        },
        {
          "indexed": false,
          "internalType": "bytes32",
          "name": "digest",
          "type": "bytes32"
        }
      ],
      "name": "IpfsCid",
      "type": "event"
    },
    {
      "constant": true,
      "inputs": [
        {
          "internalType": "uint256",
          "name": "",
          "type": "uint256"
        }
      ],
      "name": "fungibleTicketFactories",
      "outputs": [
        {
          "internalType": "address",
          "name": "",
          "type": "address"
        }
      ],
      "payable": false,
      "stateMutability": "view",
      "type": "function"
    },
    {
      "constant": false,
      "inputs": [
        {
          "internalType": "bytes1",
          "name": "_hashFunction",
          "type": "bytes1"
        },
        {
          "internalType": "bytes1",
          "name": "_size",
          "type": "bytes1"
        },
        {
          "internalType": "bytes32",
          "name": "_digest",
          "type": "bytes32"
        }
      ],
      "name": "updateIpfsCid",
      "outputs": [],
      "payable": false,
      "stateMutability": "nonpayable",
      "type": "function"
    },
    {
      "constant": false,
      "inputs": [
        {
          "internalType": "bytes1",
          "name": "_hashFunction",
          "type": "bytes1"
        },
        {
          "internalType": "bytes1",
          "name": "_size",
          "type": "bytes1"
        },
        {
          "internalType": "bytes32",
          "name": "_digest",
          "type": "bytes32"
        },
        {
          "internalType": "uint256",
          "name": "_ticketPriceWei",
          "type": "uint256"
        },
        {
          "internalType": "uint256",
          "name": "_numberTickets",
          "type": "uint256"
        }
      ],
      "name": "addFungibleTicketFactory",
      "outputs": [],
      "payable": false,
      "stateMutability": "nonpayable",
      "type": "function"
    },
    {
      "constant": true,
      "inputs": [],
      "name": "getFunglibleTicketFactories",
      "outputs": [
        {
          "internalType": "address[]",
          "name": "",
          "type": "address[]"
        }
      ],
      "payable": false,
      "stateMutability": "view",
      "type": "function"
    }
  ],
  "bytecode": "0x60806040523480156200001157600080fd5b506040516200224038038062002240833981810160405262000037919081019062000103565b836000806101000a81548173ffffffffffffffffffffffffffffffffffffffff021916908373ffffffffffffffffffffffffffffffffffffffff1602179055507f6b0ef371f62d5fc16147a9073040323298ef531a8cd26f5cd2a05023340c0b40838383604051620000ac9392919062000191565b60405180910390a15050505062000286565b600081519050620000cf8162000238565b92915050565b600081519050620000e68162000252565b92915050565b600081519050620000fd816200026c565b92915050565b600080600080608085870312156200011a57600080fd5b60006200012a87828801620000be565b94505060206200013d87828801620000d5565b93505060406200015087828801620000d5565b92505060606200016387828801620000ec565b91505092959194509250565b6200017a81620001e2565b82525050565b6200018b816200020e565b82525050565b6000606082019050620001a860008301866200016f565b620001b760208301856200016f565b620001c6604083018462000180565b949350505050565b6000620001db8262000218565b9050919050565b60007fff0000000000000000000000000000000000000000000000000000000000000082169050919050565b6000819050919050565b600073ffffffffffffffffffffffffffffffffffffffff82169050919050565b6200024381620001ce565b81146200024f57600080fd5b50565b6200025d81620001e2565b81146200026957600080fd5b50565b62000277816200020e565b81146200028357600080fd5b50565b611faa80620002966000396000f3fe60806040523480156200001157600080fd5b5060043610620000525760003560e01c80630d6a132f14620000575780638c06ee8d146200008d5780638cedd21a14620000ad578063b33e98ca14620000cf575b600080fd5b6200007560048036036200006f919081019062000438565b620000ef565b6040516200008491906200054e565b60405180910390f35b620000ab6004803603620000a5919081019062000360565b6200012c565b005b620000b76200016e565b604051620000c69190620005d8565b60405180910390f35b620000ed6004803603620000e79190810190620003b6565b620001fe565b005b60028181548110620000fd57fe5b906000526020600020016000915054906101000a900473ffffffffffffffffffffffffffffffffffffffff1681565b7f6b0ef371f62d5fc16147a9073040323298ef531a8cd26f5cd2a05023340c0b408383836040516200016193929190620005fc565b60405180910390a1505050565b60606002805480602002602001604051908101604052809291908181526020018280548015620001f457602002820191906000526020600020905b8160009054906101000a900473ffffffffffffffffffffffffffffffffffffffff1673ffffffffffffffffffffffffffffffffffffffff1681526020019060010190808311620001a9575b5050505050905090565b60008060009054906101000a900473ffffffffffffffffffffffffffffffffffffffff16868686858760405162000235906200030d565b62000246969594939291906200056b565b604051809103906000f08015801562000263573d6000803e3d6000fd5b5090507f9df1635d4c31b144eb87a272f5558f38d1a4b00e4f626df0312d9e7f6932df5e816040516200029791906200054e565b60405180910390a160028190806001815401808255809150509060018203906000526020600020016000909192909190916101000a81548173ffffffffffffffffffffffffffffffffffffffff021916908373ffffffffffffffffffffffffffffffffffffffff16021790555050505050505050565b61181f806200074983390190565b6000813590506200032c81620006fa565b92915050565b600081359050620003438162000714565b92915050565b6000813590506200035a816200072e565b92915050565b6000806000606084860312156200037657600080fd5b600062000386868287016200031b565b935050602062000399868287016200031b565b9250506040620003ac8682870162000332565b9150509250925092565b600080600080600060a08688031215620003cf57600080fd5b6000620003df888289016200031b565b9550506020620003f2888289016200031b565b9450506040620004058882890162000332565b9350506060620004188882890162000349565b92505060806200042b8882890162000349565b9150509295509295909350565b6000602082840312156200044b57600080fd5b60006200045b8482850162000349565b91505092915050565b60006200047283836200048f565b60208301905092915050565b620004898162000686565b82525050565b6200049a8162000672565b82525050565b620004ab8162000672565b82525050565b6000620004be8262000649565b620004ca818562000661565b9350620004d78362000639565b8060005b838110156200050e578151620004f2888262000464565b9750620004ff8362000654565b925050600181019050620004db565b5085935050505092915050565b62000526816200069a565b82525050565b6200053781620006c6565b82525050565b6200054881620006f0565b82525050565b6000602082019050620005656000830184620004a0565b92915050565b600060c0820190506200058260008301896200047e565b6200059160208301886200051b565b620005a060408301876200051b565b620005af60608301866200052c565b620005be60808301856200053d565b620005cd60a08301846200053d565b979650505050505050565b60006020820190508181036000830152620005f48184620004b1565b905092915050565b60006060820190506200061360008301866200051b565b6200062260208301856200051b565b6200063160408301846200052c565b949350505050565b6000819050602082019050919050565b600081519050919050565b6000602082019050919050565b600082825260208201905092915050565b60006200067f82620006d0565b9050919050565b60006200069382620006d0565b9050919050565b60007fff0000000000000000000000000000000000000000000000000000000000000082169050919050565b6000819050919050565b600073ffffffffffffffffffffffffffffffffffffffff82169050919050565b6000819050919050565b62000705816200069a565b81146200071157600080fd5b50565b6200071f81620006c6565b81146200072b57600080fd5b50565b6200073981620006f0565b81146200074557600080fd5b5056fe60806040523480156200001157600080fd5b506040516200181f3803806200181f833981810160405262000037919081019062000194565b33600360006101000a81548173ffffffffffffffffffffffffffffffffffffffff021916908373ffffffffffffffffffffffffffffffffffffffff16021790555085600260006101000a81548173ffffffffffffffffffffffffffffffffffffffff021916908373ffffffffffffffffffffffffffffffffffffffff1602179055506000600481905550816000819055508060018190555060006006819055506000600781905550600060088190555060006009819055507f6b0ef371f62d5fc16147a9073040323298ef531a8cd26f5cd2a05023340c0b4085858560405162000124939291906200024c565b60405180910390a150505050505062000365565b6000815190506200014981620002fd565b92915050565b600081519050620001608162000317565b92915050565b600081519050620001778162000331565b92915050565b6000815190506200018e816200034b565b92915050565b60008060008060008060c08789031215620001ae57600080fd5b6000620001be89828a0162000138565b9650506020620001d189828a016200014f565b9550506040620001e489828a016200014f565b9450506060620001f789828a0162000166565b93505060806200020a89828a016200017d565b92505060a06200021d89828a016200017d565b9150509295509295509295565b62000235816200029d565b82525050565b6200024681620002c9565b82525050565b60006060820190506200026360008301866200022a565b6200027260208301856200022a565b6200028160408301846200023b565b949350505050565b60006200029682620002d3565b9050919050565b60007fff0000000000000000000000000000000000000000000000000000000000000082169050919050565b6000819050919050565b600073ffffffffffffffffffffffffffffffffffffffff82169050919050565b6000819050919050565b620003088162000289565b81146200031457600080fd5b50565b62000322816200029d565b81146200032e57600080fd5b50565b6200033c81620002c9565b81146200034857600080fd5b50565b6200035681620002f3565b81146200036257600080fd5b50565b6114aa80620003756000396000f3fe6080604052600436106100fe5760003560e01c806362f34b2711610095578063ce963bb011610064578063ce963bb0146102e1578063d150f1231461030c578063e2142fde14610349578063ea4a060814610386578063f55dc78f146103b1576100fe565b806362f34b271461026a57806389fe35e514610295578063a25e90ca146102c0578063a8be2c5c146102d7576100fe565b80633c11d60b116100d15780633c11d60b146101af57806350b44712146101ed57806360bc2e791461022a57806362e899ea14610253576100fe565b806303f053ca146101035780631077420e1461012e5780632afef2a71461015957806335037a5114610184575b600080fd5b34801561010f57600080fd5b506101186103dc565b6040516101259190611351565b60405180910390f35b34801561013a57600080fd5b50610143610474565b6040516101509190611351565b60405180910390f35b34801561016557600080fd5b5061016e61047a565b60405161017b9190611351565b60405180910390f35b34801561019057600080fd5b50610199610480565b6040516101a69190611351565b60405180910390f35b3480156101bb57600080fd5b506101d660048036036101d191908101906110e8565b610486565b6040516101e492919061136c565b60405180910390f35b3480156101f957600080fd5b50610214600480360361020f91908101906110e8565b6104ca565b604051610221919061129e565b60405180910390f35b34801561023657600080fd5b50610251600480360361024c91908101906110e8565b6104fd565b005b34801561025f57600080fd5b506102686107a2565b005b34801561027657600080fd5b5061027f610878565b60405161028c9190611351565b60405180910390f35b3480156102a157600080fd5b506102aa61087e565b6040516102b79190611351565b60405180910390f35b3480156102cc57600080fd5b506102d5610884565b005b6102df610991565b005b3480156102ed57600080fd5b506102f6610a6d565b60405161030391906112d4565b60405180910390f35b34801561031857600080fd5b50610333600480360361032e91908101906110e8565b610b41565b60405161034091906112b9565b60405180910390f35b34801561035557600080fd5b50610370600480360361036b91908101906110bf565b610b74565b60405161037d91906112f6565b60405180910390f35b34801561039257600080fd5b5061039b610c0f565b6040516103a89190611351565b60405180910390f35b3480156103bd57600080fd5b506103c6610c15565b6040516103d39190611351565b60405180910390f35b600080600090505b60045481101561046b573373ffffffffffffffffffffffffffffffffffffffff166005600083815260200190815260200160002060009054906101000a900473ffffffffffffffffffffffffffffffffffffffff1673ffffffffffffffffffffffffffffffffffffffff16141561045e5780915050610471565b80806001019150506103e4565b50600090505b90565b60085481565b60075481565b60095481565b600a6020528060005260406000206000915090508060000154908060010160009054906101000a900473ffffffffffffffffffffffffffffffffffffffff16905082565b60056020528060005260406000206000915054906101000a900473ffffffffffffffffffffffffffffffffffffffff1681565b3373ffffffffffffffffffffffffffffffffffffffff166005600083815260200190815260200160002060009054906101000a900473ffffffffffffffffffffffffffffffffffffffff1673ffffffffffffffffffffffffffffffffffffffff161461059e576040517f08c379a000000000000000000000000000000000000000000000000000000000815260040161059590611331565b60405180910390fd5b6000806105a9610c1b565b91509150600073ffffffffffffffffffffffffffffffffffffffff168273ffffffffffffffffffffffffffffffffffffffff16146106f6573373ffffffffffffffffffffffffffffffffffffffff166108fc6001549081150290604051600060405180830381858888f19350505050158015610629573d6000803e3d6000fd5b50600b600082815260200190815260200160002060009054906101000a900473ffffffffffffffffffffffffffffffffffffffff166005600085815260200190815260200160002060006101000a81548173ffffffffffffffffffffffffffffffffffffffff021916908373ffffffffffffffffffffffffffffffffffffffff160217905550600b6000600854815260200190815260200160002060006101000a81549073ffffffffffffffffffffffffffffffffffffffff02191690556001810160088190555061079d565b60405180604001604052808481526020013373ffffffffffffffffffffffffffffffffffffffff16815250600a600060075481526020019081526020016000206000820151816000015560208201518160010160006101000a81548173ffffffffffffffffffffffffffffffffffffffff021916908373ffffffffffffffffffffffffffffffffffffffff1602179055509050506007600081548092919060010191905055505b505050565b600060065490505b600754811015610875573373ffffffffffffffffffffffffffffffffffffffff16600a600083815260200190815260200160002060010160009054906101000a900473ffffffffffffffffffffffffffffffffffffffff1673ffffffffffffffffffffffffffffffffffffffff16141561086857600a60008281526020019081526020016000206000808201600090556001820160006101000a81549073ffffffffffffffffffffffffffffffffffffffff02191690555050610875565b80806001019150506107aa565b50565b60005481565b60065481565b600060085490505b60095481101561098e573373ffffffffffffffffffffffffffffffffffffffff16600b600083815260200190815260200160002060009054906101000a900473ffffffffffffffffffffffffffffffffffffffff1673ffffffffffffffffffffffffffffffffffffffff16141561098157600b600082815260200190815260200160002060006101000a81549073ffffffffffffffffffffffffffffffffffffffff02191690553373ffffffffffffffffffffffffffffffffffffffff166108fc6001549081150290604051600060405180830381858888f1935050505015801561097b573d6000803e3d6000fd5b5061098e565b808060010191505061088c565b50565b60015434146109d5576040517f08c379a00000000000000000000000000000000000000000000000000000000081526004016109cc90611311565b60405180910390fd5b60005460045410156109ef576109ea33610cf1565b610a6b565b60008060006109fc610dc3565b925092509250600073ffffffffffffffffffffffffffffffffffffffff168273ffffffffffffffffffffffffffffffffffffffff1614610a5e5780600681905550610a478333610ec1565b600660008154809291906001019190505550610a67565b610a6661102d565b5b5050505b565b6060600454604051908082528060200260200182016040528015610aa05781602001602082028038833980820191505090505b50905060008090505b600454811015610b3a576005600082815260200190815260200160002060009054906101000a900473ffffffffffffffffffffffffffffffffffffffff16828281518110610af357fe5b602002602001019073ffffffffffffffffffffffffffffffffffffffff16908173ffffffffffffffffffffffffffffffffffffffff16815250508080600101915050610aa9565b5080905090565b600b6020528060005260406000206000915054906101000a900473ffffffffffffffffffffffffffffffffffffffff1681565b600080600090505b600454811015610c04578273ffffffffffffffffffffffffffffffffffffffff166005600083815260200190815260200160002060009054906101000a900473ffffffffffffffffffffffffffffffffffffffff1673ffffffffffffffffffffffffffffffffffffffff161415610bf7576001915050610c0a565b8080600101915050610b7c565b50600090505b919050565b60045481565b60015481565b600080600060085490505b600954811015610cde57600073ffffffffffffffffffffffffffffffffffffffff16600b600083815260200190815260200160002060009054906101000a900473ffffffffffffffffffffffffffffffffffffffff1673ffffffffffffffffffffffffffffffffffffffff1614610cd957600b600082815260200190815260200160002060009054906101000a900473ffffffffffffffffffffffffffffffffffffffff16818191509250925050610ced565b610c26565b60008081915080905092509250505b9091565b8060056000600454815260200190815260200160002060006101000a81548173ffffffffffffffffffffffffffffffffffffffff021916908373ffffffffffffffffffffffffffffffffffffffff160217905550600460008154809291906001019190505550600260009054906101000a900473ffffffffffffffffffffffffffffffffffffffff1673ffffffffffffffffffffffffffffffffffffffff166108fc349081150290604051600060405180830381858888f19350505050158015610dbf573d6000803e3d6000fd5b5050565b60008060008060065490505b600754811015610ea657600073ffffffffffffffffffffffffffffffffffffffff16600a600083815260200190815260200160002060010160009054906101000a900473ffffffffffffffffffffffffffffffffffffffff1673ffffffffffffffffffffffffffffffffffffffff1614610ea157600a600082815260200190815260200160002060000154600a600083815260200190815260200160002060010160009054906101000a900473ffffffffffffffffffffffffffffffffffffffff168281915093509350935050610ebc565b610dcf565b6000806000829250819150809050935093509350505b909192565b600a6000600654815260200190815260200160002060010160009054906101000a900473ffffffffffffffffffffffffffffffffffffffff1673ffffffffffffffffffffffffffffffffffffffff166108fc6001549081150290604051600060405180830381858888f19350505050158015610f41573d6000803e3d6000fd5b5060056000600a6000600654815260200190815260200160002060000154815260200190815260200160002060006101000a81549073ffffffffffffffffffffffffffffffffffffffff0219169055806005600084815260200190815260200160002060006101000a81548173ffffffffffffffffffffffffffffffffffffffff021916908373ffffffffffffffffffffffffffffffffffffffff160217905550600a600060065481526020019081526020016000206000808201600090556001820160006101000a81549073ffffffffffffffffffffffffffffffffffffffff021916905550505050565b33600b6000600954815260200190815260200160002060006101000a81548173ffffffffffffffffffffffffffffffffffffffff021916908373ffffffffffffffffffffffffffffffffffffffff160217905550600960008154809291906001019190505550565b6000813590506110a481611439565b92915050565b6000813590506110b981611450565b92915050565b6000602082840312156110d157600080fd5b60006110df84828501611095565b91505092915050565b6000602082840312156110fa57600080fd5b6000611108848285016110aa565b91505092915050565b600061111d8383611138565b60208301905092915050565b611132816113f1565b82525050565b611141816113df565b82525050565b611150816113df565b82525050565b6000611161826113a5565b61116b81856113bd565b935061117683611395565b8060005b838110156111a757815161118e8882611111565b9750611199836113b0565b92505060018101905061117a565b5085935050505092915050565b6111bd81611403565b82525050565b60006111d0602a836113ce565b91507f5468652076616c756520646f6573206e6f74206d61746368207468652074696360008301527f6b65742070726963652e000000000000000000000000000000000000000000006020830152604082019050919050565b6000611236602e836113ce565b91507f5468652073656e64657220646f6573204e4f54206f776e2061207469636b657460008301527f206f662074686973206b696e642e0000000000000000000000000000000000006020830152604082019050919050565b6112988161142f565b82525050565b60006020820190506112b36000830184611147565b92915050565b60006020820190506112ce6000830184611129565b92915050565b600060208201905081810360008301526112ee8184611156565b905092915050565b600060208201905061130b60008301846111b4565b92915050565b6000602082019050818103600083015261132a816111c3565b9050919050565b6000602082019050818103600083015261134a81611229565b9050919050565b6000602082019050611366600083018461128f565b92915050565b6000604082019050611381600083018561128f565b61138e6020830184611129565b9392505050565b6000819050602082019050919050565b600081519050919050565b6000602082019050919050565b600082825260208201905092915050565b600082825260208201905092915050565b60006113ea8261140f565b9050919050565b60006113fc8261140f565b9050919050565b60008115159050919050565b600073ffffffffffffffffffffffffffffffffffffffff82169050919050565b6000819050919050565b611442816113df565b811461144d57600080fd5b50565b6114598161142f565b811461146457600080fd5b5056fea365627a7a7231582083fdd3f1cabf0e70bd31d8f00898b46136af8a19ee8a9e324d57642994dbd8e96c6578706572696d656e74616cf564736f6c63430005100040a365627a7a723158206950fb62af508654c403644bc245b05f2870a62303ca3094efcbf34b0dc562586c6578706572696d656e74616cf564736f6c63430005100040",
  "source": "pragma solidity >=0.4.22 <0.7.0;\npragma experimental ABIEncoderV2; //allows returning a struct from a function\n\nimport \"./FungibleTicketFactory.sol\";\n\n\ncontract Event {\n    event IpfsCid(bytes1 hashFunction, bytes1 size, bytes32 digest);\n    event FungibleTicketAdded(address);\n\n    address payable owner;\n    uint256 eventId;\n    // EventLibrary.Multihash public metadataMultihash; // IPFS id, hash of JSON storing name, date, location, website\n    address[] public fungibleTicketFactories;\n\n    //mapping (uint => EventLibrary.NonFungibleTicketFactory) nonFungibleTickets;\n\n    // TODO allowed different verification methods\n    // TODO affiliate addressess\n\n    constructor(\n        address payable _owner,\n        bytes1 _hashFunction,\n        bytes1 _size,\n        bytes32 _digest\n    ) public {\n        owner = _owner;\n        emit IpfsCid(_hashFunction, _size, _digest);\n    }\n\n    function updateIpfsCid(bytes1 _hashFunction, bytes1 _size, bytes32 _digest)\n        public\n    {\n        //TODO only owner\n        emit IpfsCid(_hashFunction, _size, _digest);\n    }\n\n    function addFungibleTicketFactory(\n        bytes1 _hashFunction,\n        bytes1 _size,\n        bytes32 _digest,\n        uint256 _ticketPriceWei,\n        uint256 _numberTickets\n    ) public {\n        // TODO only owner\n\n\n            FungibleTicketFactory newFungibleTicketFactory\n         = new FungibleTicketFactory(\n            owner,\n            _hashFunction,\n            _size,\n            _digest,\n            _numberTickets,\n            _ticketPriceWei\n        );\n\n        emit FungibleTicketAdded(address(newFungibleTicketFactory));\n\n        fungibleTicketFactories.push(address(newFungibleTicketFactory));\n    }\n\n    function getFunglibleTicketFactories()\n        public\n        view\n        returns (address[] memory)\n    {\n        return fungibleTicketFactories;\n    }\n\n    // TODO function to remove position in the buying queue and get money back\n\n    //function addNonFungibleTicketFactory(uint _ticketPrice, uint _numberTickets, string memory _metadataURI) public{\n    //    // TODO only owner of the event can add tickets\n    //    nonFungibleTickets[nonFungibleTicketFactoryIndex] = EventLibrary.NonFungibleTicketFactory({\n    //        metadataURI: _metadataURI,\n    //        hashMetadata: keccak256(bytes(_metadataURI)),\n    //        numberTickets: _numberTickets,\n    //        ticketPrice: _ticketPrice,\n    //        numberTicketsIssued: 0\n    //    });\n    //    nonFungibleTicketFactoryIndex++;\n    //}\n    //\n    //function buyNonFungibleTicket(uint _nonFungibleTicketFactoryId, uint _ticketId) public payable{\n    //    // TODO Check if msg.sender is has verified ID in verification smart contract\n    //    EventLibrary.NonFungibleTicketFactory storage nftf = nonFungibleTickets[_nonFungibleTicketFactoryId];\n    //    require(msg.value == nftf.ticketPrice, \"The value does not match the ticket price.\");\n    //    require(nftf.tickets[_ticketId].owner == address(0) || nftf.tickets[_ticketId].isForSale, \"This ticket has been bought already and is currently not for sale.\");\n    //\n    //    // ticket has not been issued before, create a new ticket otherwise transfer the ownership\n    //    if (nftf.tickets[_ticketId].owner == address(0)){\n    //        issueNonFungibleTicket(nftf, _ticketId, msg.sender, msg.value, owner);\n    //    }else{\n    //        changeTicketOwner(nftf, _ticketId, msg.sender, msg.value);\n    //    }\n    //}\n    //\n    //function issueNonFungibleTicket(EventLibrary.NonFungibleTicketFactory storage _nftf, uint _ticketId, address payable _owner, uint _ticketPrice, address payable _eventOwner) internal {\n    //    _nftf.tickets[_ticketId] = EventLibrary.NonFungibleTicket({\n    //        id: _ticketId,\n    //        owner: _owner,\n    //        isForSale: false\n    //    });\n    //\n    //    _nftf.numberTicketsIssued ++;\n    //\n    //    // TODO send ticket price to an escrow service\n    //    (_eventOwner).transfer(_ticketPrice);\n    //}\n    //\n    //function changeTicketOwner(EventLibrary.NonFungibleTicketFactory storage _nftf, uint _ticketId, address payable _newOwner, uint _ticketValue) internal {\n    //\n    //    // pay previous owner\n    //    (_nftf.tickets[_ticketId].owner).transfer(_ticketValue);\n    //\n    //    // transfer ownership\n    //    _nftf.tickets[_ticketId].owner = _newOwner;\n    //}\n    //\n    //function sellNonFungibleTicket(uint _nonFungibleTicketFactoryId, uint _ticketId) public{\n    //    EventLibrary.NonFungibleTicketFactory storage nftf = nonFungibleTickets[_nonFungibleTicketFactoryId];\n    //    require(msg.sender == nftf.tickets[_ticketId].owner, \"Only the owner of this ticket can sell this ticket.\");\n    //    nftf.tickets[_ticketId].isForSale = true;\n    //}\n    //\n    //function cancelSellOrderNonFungibleTicket(uint _nonFungibleTicketFactoryId, uint _ticketId) public{\n    //    EventLibrary.NonFungibleTicketFactory storage nftf = nonFungibleTickets[_nonFungibleTicketFactoryId];\n    //    require(msg.sender == nftf.tickets[_ticketId].owner, \"Only the owner of this ticket can stop the sell order of this ticket.\");\n    //    nftf.tickets[_ticketId].isForSale = false;\n    //}\n\n    // **** Getters ****\n    //function getFungibleTicket(uint _fungibleTicketFactoryId, uint _ticketId) public view returns(EventLibrary.FungibleTicket memory _ticket){\n    //    return fungibleTickets[_fungibleTicketFactoryId].tickets[_ticketId];\n    //}\n    //\n    //function getFungibleTickets(uint _fungibleTicketFactoryId) public view returns(EventLibrary.FungibleTicket[] memory _fts){\n    //    uint numTickets = fungibleTickets[_fungibleTicketFactoryId].ticketIndex;\n    //    _fts = new EventLibrary.FungibleTicket[](numTickets);\n    //    for(uint256 i = 0; i < numTickets; i++){\n    //        _fts[i] = fungibleTickets[_fungibleTicketFactoryId].tickets[i];\n    //    }\n    //    return _fts;\n    //}\n    //\n    //function getFungibleTicketFactory(uint _fungibleTicketFactoryId) public view returns(\n    //        string memory _metadataURI,\n    //        bytes32 _hashMetadata,\n    //        uint _numberTickets,\n    //        uint _ticketPrice,\n    //        uint _ticketIndex,\n    //        uint _sellingQueueHeadLength,\n    //        uint _buyingQueueHeadLength\n    //    ){\n    //    EventLibrary.FungibleTicketFactory memory ftf = fungibleTickets[_fungibleTicketFactoryId];\n    //    return (ftf.metadataURI, ftf.hashMetadata, ftf.numberTickets, ftf.ticketPrice, ftf.ticketIndex, ftf.sellingQueueHead - ftf.sellingQueueTail, ftf.buyingQueueHead - ftf.buyingQueueTail);\n    //}\n    //\n    //function getNonFungibleTicket(uint _nonFungibleTicketFactoryId, uint _ticketId) public view returns(EventLibrary.NonFungibleTicket memory _ticket){\n    //    return nonFungibleTickets[_nonFungibleTicketFactoryId].tickets[_ticketId];\n    //}\n    //\n    //function getNonFungibleTickets(uint _nonFungibleTicketFactoryId) public view returns(EventLibrary.NonFungibleTicket[] memory _nfts){\n    //    uint numTickets = nonFungibleTickets[_nonFungibleTicketFactoryId].numberTicketsIssued;\n    //\n    //    _nfts = new EventLibrary.NonFungibleTicket[](numTickets);\n    //\n    //    for(uint256 i = 0; i < numTickets; i++){\n    //        _nfts[i] = nonFungibleTickets[_nonFungibleTicketFactoryId].tickets[i];\n    //    }\n    //    return _nfts;\n    //}\n    //\n    //    function getNonFungibleTicketFactory(uint _nonFungibleTicketFactoryId) public view returns(\n    //        string memory _metadataURI,\n    //        bytes32 _hashMetadata,\n    //        uint _numberTickets,\n    //        uint _ticketPrice,\n    //        uint _numberTicketsIssued\n    //    ){\n    //    EventLibrary.NonFungibleTicketFactory memory nftf = nonFungibleTickets[_nonFungibleTicketFactoryId];\n    //    return (nftf.metadataURI, nftf.hashMetadata, nftf.numberTickets, nftf.ticketPrice, nftf.numberTicketsIssued);\n    //}\n} //\n",
  "sourcePath": "/Users/michael/MScProjectRepositories/host-client/idetix/contracts/Event.sol",
  "compiler": {
    "name": "solc",
    "version": "0.5.16+commit.9c3226ce.Emscripten.clang"
  },
  "schemaVersion": "3.2.0",
  "updatedAt": "2020-06-25T15:17:08.698Z",
  "devdoc": {
    "methods": {}
  },
  "userdoc": {
    "methods": {}
  }
}