{
  "contractName": "identity",
  "abi": [
    {
      "inputs": [],
      "stateMutability": "nonpayable",
      "type": "constructor"
    },
    {
      "inputs": [
        {
          "internalType": "bytes32",
          "name": "ipfsHash",
          "type": "bytes32"
        }
      ],
      "name": "registerApprover",
      "outputs": [
        {
          "internalType": "bool",
          "name": "",
          "type": "bool"
        }
      ],
      "stateMutability": "nonpayable",
      "type": "function"
    },
    {
      "inputs": [
        {
          "internalType": "address",
          "name": "identity",
          "type": "address"
        },
        {
          "internalType": "uint256",
          "name": "level",
          "type": "uint256"
        }
      ],
      "name": "approveIdentity",
      "outputs": [
        {
          "internalType": "bool",
          "name": "",
          "type": "bool"
        }
      ],
      "stateMutability": "nonpayable",
      "type": "function"
    },
    {
      "inputs": [
        {
          "internalType": "address",
          "name": "approver",
          "type": "address"
        },
        {
          "internalType": "address",
          "name": "identity",
          "type": "address"
        }
      ],
      "name": "getSecurityLevel",
      "outputs": [
        {
          "internalType": "uint256",
          "name": "",
          "type": "uint256"
        }
      ],
      "stateMutability": "view",
      "type": "function",
      "constant": true
    },
    {
      "inputs": [
        {
          "internalType": "address",
          "name": "approver",
          "type": "address"
        }
      ],
      "name": "getApproverInfo",
      "outputs": [
        {
          "internalType": "bytes32",
          "name": "",
          "type": "bytes32"
        }
      ],
      "stateMutability": "view",
      "type": "function",
      "constant": true
    }
  ],
  "bytecode": "0x608060405234801561001057600080fd5b50336000806101000a81548173ffffffffffffffffffffffffffffffffffffffff021916908373ffffffffffffffffffffffffffffffffffffffff160217905550600060018190555061059a806100686000396000f3fe608060405234801561001057600080fd5b506004361061004c5760003560e01c8063502323131461005157806360c4cc84146100b7578063af918bf1146100fd578063e74ad94114610175575b600080fd5b61009d6004803603604081101561006757600080fd5b81019080803573ffffffffffffffffffffffffffffffffffffffff169060200190929190803590602001909291905050506101cd565b604051808215151515815260200191505060405180910390f35b6100e3600480360360208110156100cd57600080fd5b8101908080359060200190929190505050610312565b604051808215151515815260200191505060405180910390f35b61015f6004803603604081101561011357600080fd5b81019080803573ffffffffffffffffffffffffffffffffffffffff169060200190929190803573ffffffffffffffffffffffffffffffffffffffff169060200190929190505050610361565b6040518082815260200191505060405180910390f35b6101b76004803603602081101561018b57600080fd5b81019080803573ffffffffffffffffffffffffffffffffffffffff1690602001909291905050506104c6565b6040518082815260200191505060405180910390f35b60008060001b600360003373ffffffffffffffffffffffffffffffffffffffff1673ffffffffffffffffffffffffffffffffffffffff168152602001908152602001600020541415610287576040517f08c379a00000000000000000000000000000000000000000000000000000000081526004018080602001828103825260158152602001807f506c65617365207265676973746572206669727374000000000000000000000081525060200191505060405180910390fd5b81600260003373ffffffffffffffffffffffffffffffffffffffff1673ffffffffffffffffffffffffffffffffffffffff16815260200190815260200160002060008573ffffffffffffffffffffffffffffffffffffffff1673ffffffffffffffffffffffffffffffffffffffff168152602001908152602001600020819055506001905092915050565b600081600360003373ffffffffffffffffffffffffffffffffffffffff1673ffffffffffffffffffffffffffffffffffffffff1681526020019081526020016000208190555060019050919050565b60008060001b600360008573ffffffffffffffffffffffffffffffffffffffff1673ffffffffffffffffffffffffffffffffffffffff168152602001908152602001600020541415801561043257506000600260008573ffffffffffffffffffffffffffffffffffffffff1673ffffffffffffffffffffffffffffffffffffffff16815260200190815260200160002060008473ffffffffffffffffffffffffffffffffffffffff1673ffffffffffffffffffffffffffffffffffffffff1681526020019081526020016000205414155b156104bb57600260008473ffffffffffffffffffffffffffffffffffffffff1673ffffffffffffffffffffffffffffffffffffffff16815260200190815260200160002060008373ffffffffffffffffffffffffffffffffffffffff1673ffffffffffffffffffffffffffffffffffffffff1681526020019081526020016000205490506104c0565b600090505b92915050565b60008060001b600360008473ffffffffffffffffffffffffffffffffffffffff1673ffffffffffffffffffffffffffffffffffffffff168152602001908152602001600020541461055857600360008373ffffffffffffffffffffffffffffffffffffffff1673ffffffffffffffffffffffffffffffffffffffff16815260200190815260200160002054905061055f565b6000801b90505b91905056fea2646970667358221220ce5e858aa08fa3c3431963bfa2bf0b9fc9958ae3a7f08208430ca20f8230fe6d64736f6c63430006080033",
  "immutableReferences": {},
  "source": "pragma solidity ^0.6.8;\r\n\r\n\r\ncontract identity{\r\n    address payable owner;\r\n    uint idCount;\r\n\r\n    constructor() public {\r\n        owner = msg.sender;\r\n        idCount = 0;\r\n    }\r\n\r\n    mapping (address => mapping (address => uint) ) approvedIdentity ;\r\n\r\n    mapping (address => bytes32) approverInfo;\r\n\r\n    function registerApprover( bytes32 ipfsHash ) public returns (bool) {\r\n        approverInfo[msg.sender] = ipfsHash;\r\n        return true;\r\n    }\r\n\r\n    function approveIdentity( address identity, uint level) public returns (bool) {\r\n        require (approverInfo[msg.sender] != 0, \"Please register first\");\r\n        approvedIdentity[msg.sender][identity] = level;\r\n        return true;\r\n    }\r\n\r\n    function getSecurityLevel( address approver, address  identity) public view returns (uint) {\r\n        if (approverInfo[approver] != 0 && approvedIdentity[approver][identity] != 0) {\r\n            return approvedIdentity[approver][identity];\r\n        }\r\n        else {\r\n            return 0;\r\n        }\r\n    }\r\n    function getApproverInfo (address approver) public view returns (bytes32) {\r\n        if (approverInfo[approver] != 0) {\r\n            return approverInfo[approver];\r\n        }\r\n        else {\r\n            return 0;\r\n        }\r\n    }\r\n\r\n}\r\n",
  "sourcePath": "/Users/michael/MScProjectRepositories/host-client/idetix/contracts/Identity.sol",
  "compiler": {
    "name": "solc",
    "version": "0.6.8+commit.0bbfe453.Emscripten.clang"
  },
  "schemaVersion": "3.2.0",
  "updatedAt": "2020-07-23T08:48:30.527Z",
  "networkType": "ethereum",
  "devdoc": {
    "methods": {}
  },
  "userdoc": {
    "methods": {}
  }
}